:020000040800F2
:10000000F006002029020008E7150008FB1400088C
:10001000E51500081F040008CF17000800000000C5
:10002000000000000000000000000000EB150008C8
:100030002D04000800000000E9150008ED15000877
:10004000430200084302000843020008430200087C
:10005000430200084302000843020008430200086C
:10006000430200084302000843020008430200085C
:10007000430200084302000843020008430200084C
:10008000430200084302000843020008430200083C
:10009000210400084302000843020008430200084C
:1000A00043020008A11600084302000843020008AA
:1000B000430200084302000843020008430200080C
:1000C00043020008430200084302000843020008FC
:1000D00043020008430200084302000843020008EC
:1000E00043020008430200084302000843020008DC
:1000F00043020008430200084302000843020008CC
:1001000043020008430200084302000843020008BB
:1001100043020008430200084302000843020008AB
:10012000430200084302000843020008430200089B
:10013000430200084302000843020008430200088B
:10014000430200084302000843020008430200087B
:10015000430200084302000843020008430200086B
:10016000430200084302000843020008430200085B
:100170004302000843020008430200080000000098
:10018000430200084302000800F002F800F03CF8C7
:100190000AA090E8000C82448344AAF10107DA45E2
:1001A00001D100F031F8AFF2090EBAE80F0013F0F8
:1001B000010F18BFFB1A43F00103184798160000FF
:1001C000B8160000103A24BF78C878C1FAD8520790
:1001D00024BF30C830C144BF04680C6070470000C1
:1001E0000023002400250026103A28BF78C1FBD840
:1001F000520728BF30C148BF0B6070471FB501F0E0
:100200001BFB1FBD10B510BD00F0CFF81146FFF766
:10021000F5FF01F0F9FA00F0EDF803B4FFF7F2FF93
:1002200003BC00F0F5F80000094880470948004782
:10023000FEE7FEE7FEE7FEE7FEE7FEE7FEE7FEE796
:10024000FEE7FEE704480549054A064B70470000F3
:100250009116000889010008F0000020F006002037
:10026000F0020020F002002053EA020C00F0698046
:100270002DE9F04B4FF00006002B1FBFB3FA83F5BA
:1002800003FA05F424FA05F65E4012BF1643B2FAEB
:1002900082F502FA05F4C5F120051EBF22FA05FC1D
:1002A00044EA0C04203556EA044C4FEA144418BFC3
:1002B000641C4FF000084FF00009904271EB030CF2
:1002C00039D3002919BFB1FA81F701FA07F6B0FA5C
:1002D00080F700FA07F6C7F120071EBF20FA07FCD7
:1002E00046EA0C062037B6FBF4FCA7EB0507103FE7
:1002F00007F01F0BCBF120062CFA06F60CFA0BFBCD
:1003000044BFB3460026202FA4BF5E464FF0000B2B
:100310005BEA060C08BF4FF0010B19EB0B0948EB29
:100320000608ABFB027C06FB02CC0BFB03CCC01B1C
:1003300071EB0C01C1E70B46024641464846BDE859
:10034000F08B13B54FF000004FF00001AFF30080C9
:10035000BDE81C4070474FF0000200B513469446BC
:100360009646203922BFA0E80C50A0E80C50B1F10D
:100370002001BFF4F7AF090728BFA0E80C5048BF21
:100380000CC05DF804EB890028BF40F8042B08BFBF
:10039000704748BF20F8022B11F0804F18BF00F8BB
:1003A000012B7047704770477047754600F02CF876
:1003B000AE4605006946534620F00700854618B052
:1003C00020B5FFF73FFFBDE820404FF000064FF09B
:1003D00000074FF000084FF0000BAC46ACE8C00936
:1003E000ACE8C009ACE8C009ACE8C00921F00701DD
:1003F0008D46704710B50446AFF300802046BDE837
:100400001040FFF70ABF00000048704710000020AE
:1004100001491820ABBEFEE7260002007047FEE748
:10042000014800F08DB800BF78000020704772B618
:10043000FEE790F82020013AD2B2012A04D80068E1
:1004400000F11402002004E000F1240201204FF426
:1004500080211368194311607047000090F8202034
:10046000013AD2B2012A2BD8B0B53348026842F023
:1004700001020260026822F47C5202604A6A036848
:1004800043EA0222012302604C6904F01F0203FACE
:1004900002F2C3696FEA020C9343C361CB69012B7B
:1004A00014D043BBC36800EBC40E03EA0C03C36063
:1004B000CB688D8845EA0343CEF840308E4612E083
:1004C000416A41F48021416201207047C36800EB1A
:1004D000C40E1343C3600D688B8843EA0543CEF80E
:1004E000403001F10C0E00EBC4038C68BEF80050E4
:1004F00045EA04455D648B69456845EA0204002BC2
:1005000008BF05EA0C0444600B69456945EA02042A
:10051000002B08BF05EA0C044461096A0129BDE803
:10052000B04002BFC1691143C161016821F00101FE
:1005300001600020704700BF006600407047000067
:100540002DE9F84F044620684669D0F80490876882
:10055000D0F80CB0D0F810A0D0F8188016F0010F29
:1005600001D1002549E0F9070ED001218160B807CB
:1005700007D478071DD4380721D4204600F0CFF9DE
:1005800002E0204600F0CCF90025F8051CD52068D3
:100590004FF480718160B80507D478050CD4380514
:1005A00010D4204600F0BDF90EE0204600F0BAF964
:1005B0000AE04FF40065E8E745F4005504E04FF425
:1005C0008055E2E745F48045F80316D520684FF4DE
:1005D00080318160B80307D4780309D438030AD482
:1005E000204600F0A0F908E0204600F09DF904E064
:1005F00045F4004501E045F48035300707D51BF090
:1006000010001FBF20681021C16045F400757007FD
:1006100008D51BF0080005D020680821C1602046DD
:1006200000F04CF9B00707D52068C06810F0030F40
:100630001CBF204600F043F9700607D51AF01000E1
:100640001FBF20681021016145F48065B00608D500
:100650001AF0080005D0206808210161204600F04A
:100660002FF9F00607D52068006910F0030F1CBFB2
:10067000204600F026F9B00308D519F0100005D087
:10068000206810214160204600F01CF9F00308D5D5
:1006900019F0080005D0206808214160204600F0CC
:1006A00044F9300444D55FEA49703ED506F48070C1
:1006B00018F0020F08EA102040EA0500014618BFB2
:1006C00041F0020116F4007F08BF014618F0040F44
:1006D0000D4618BF45F0040516F4806F08BF0D469F
:1006E00016F4006F18BF18F070001ED01038000903
:1006F000052815D8DFE800F00306090C0F1245F0B5
:1007000008050DE045F010050AE045F0200507E07A
:1007100045F0400504E045F0800501E045F48075B2
:100720002068816921F070018161206804214160A5
:100730003DB1606A284360622046BDE8F84FFFF78C
:10074000FDBEBDE8F88FB0B50446C4B194F82000F2
:1007500010B9204600F076F82068016841F00101E8
:10076000016000F0ABF905462068416811F0010F07
:1007700007D100F0A3F9401B0B28F5D312E00120AC
:10078000B0BD016821F00201016000F097F9054653
:100790002068416811F0020F0BD000F08FF9401B68
:1007A0000B28F5D3606A052140F400306062012017
:1007B00044E0217E026822F08003012908BF42F054
:1007C00080030360617E026822F04003012908BFB4
:1007D00042F040030360A17E026822F02003012959
:1007E00008BF42F020030360E17E026842F010037C
:1007F000012908BF22F010030360217F026822F064
:100800000803012908BF42F008030360617F026802
:1008100022F00403012908BF42F004030360D4E975
:1008200001C2D4E9033561691A432A431143ACF18B
:1008300001021143C16100200121606284F820108F
:10084000B0BD000010B586B0044601A81421FFF722
:1008500082FD2168174881422AD1002100F5D43059
:100860000091154A136943F000731361136903F093
:1008700000730093009B0091136843F0080313601A
:100880000223126802F008020092009A03220192E9
:10089000CDE9023109210492059101A900F046F841
:1008A00014200021002200F075F9142000F064F9F2
:1008B00006B010BD006400403038024070477047F9
:1008C000704770477047B0B5044694F8200001287F
:1008D0001CD1022084F820002068016821F0010169
:1008E000016000F0EBF805462068406810F0010F49
:1008F00012D000F0E3F8401B0B28F5D3606A40F4F7
:1009000000306062052084F8200003E0606A40F453
:10091000002060620120B0BD00206062B0BD704761
:100920007047704770477047704770472DE9FC4F1C
:100930005B4A08274FF0010E4FF0030A4FF0000BFF
:100940004FF00008904208BF0727564A02444FEA7A
:10095000B223072B38BF4FEAB22700970027102F8A
:1009600008BFBDE8FC8F0A680EFA07F4224200F0C7
:1009700090804B6803F00302551E012D15D8D0F866
:1009800008C00AFA08F52CEA050CCD6805FA08F546
:1009900045EA0C058560C3F3001505FA07FC4568B8
:1009A000A54345EA0C05456001E0032A1DD0C66851
:1009B0000AFA08F5022A26EA05068D6805FA08F5FE
:1009C00046EA0506C66010D1374D0BF01C020F2316
:1009D000934005EA57060644356A25EA03030D6984
:1009E00005FA02F21A4332624B68056803F003020B
:1009F0000AFA08F613F4403F02FA08F225EA06065E
:100A000042EA0602026044D000220192274A13689B
:100A100043F480431360126802F48042019227F08D
:100A20000302234B019E234D0BF00C0602EB03093E
:100A30000F2259F805C002FA06FE009A2CEA0E0CA5
:100A400002FA06F64FF0010E46EA0C0649F8056078
:100A50009A684E68A24316F4801F18BF224316F40A
:100A6000001F9A60144A156825EA040518BF25433B
:100A700016F4003F15605A6822EA040218BF2243A8
:100A800016F4803F5A601A6822EA040218BF224313
:100A90001A600BF1040B08F1020801375FE700BF91
:100AA000001C02400000FEBFFCFFFF7F44380240F4
:100AB000003C014008FCFFFF0C3C01401F488068DF
:100AC000704700BF1D4801788268114481607047FB
:100AD00080B50B48016841F400710160016841F480
:100AE00080610160016841F480710160032000F0C1
:100AF0007DF80F2000F006F800F022F8002080BDFD
:100B0000003C024070B50D4E04464FF47A713078C7
:100B1000B1FBF0F087490968B1FBF0F000F0F6FA9C
:100B200001250F2C08D838B94FF0FF30214600229C
:100B3000002500F02FF87460284670BD00000020EA
:100B400082B0002001900B494A6842F480424A601A
:100B50004A6802F480420192019A0090086840F0CD
:100B600080500860086800F080500090009802B043
:100B7000704700BF40380240002808DB00F01F012A
:100B80000122400902FA01F1014A42F8201070479F
:100B900000E100E0B0B5144C1A4D00F00F03B0F1C5
:100BA000FF3FA3F104032B4403F10C03C8BF031957
:100BB0002868C0F30220051DC41E80F00700072D21
:100BC0004FF0010538BF0024042828BF042005FA8F
:100BD00000F00138084005FA04F10F31A04011403F
:100BE000084300011870B0BD00E400E005494FF66D
:100BF000FF030A681A4060F30A22034810430860A2
:100C0000704700BF0CED00E00000FA052DE9F0414F
:100C100004468846002C00F08480444FD7F8000436
:100C200000F00700404507D287F80084D7F8000499
:100C300000F00700404574D1206810F0020F11D079
:100C4000410742BFB96841F4E051B960010742BFB2
:100C5000B96841F46041B960B968A26821F0F00157
:100C60001143B960C0072BD06068811E022904D2ED
:100C7000396811F0007F0BD153E0012804D13968A5
:100C800011F4003F04D14CE0396811F0020F48D054
:100C9000B96821F003010843B860FFF70FFF06466B
:100CA00041F28835B868616800F00C00B0EB810F44
:100CB00006D0FFF703FF801BA842F3D9032031E0E1
:100CC000D7F8000400F00700404507D987F80084F2
:100CD000D7F8000400F00700404522D1206810F04A
:100CE000040F05D0B968E26821F4E0511143B960FE
:100CF000000706D5B868216920F4604040EAC100C9
:100D0000B86000F01BF8B968094AC1F30311515CDF
:100D1000C8400849086008480068FFF7F3FE002053
:100D200000E00120C0B2BDE8F08100BF0038024001
:100D3000421800080C0000200400002010B5F04C00
:100D4000606800F00C011248082904D0042904BF8F
:100D5000104810BD10BD226820680E49002310F411
:100D6000800F02F03F0204BF42F20041C0F2F401E2
:100D70002068C0F38810A1FB0001FFF775FA216815
:100D80000222C1F3014102EB4101B0FBF1F010BDC1
:100D90000024F400001BB7002DE9F84F8246BAF199
:100DA000000F00F064819AF80000D44ED44FC007C1
:100DB0004AD0786800F00C00042807D1306810F49D
:100DC000003F41D0DAF80400F0BB50E1786800F051
:100DD0000C00082803D1386810F4800FEED1DAF83F
:100DE0000480B8F5803F06D03068B8F5A02F13D145
:100DF00040F480203060306840F480303060FFF78D
:100E00005DFE0546306810F4003F1DD1FFF756FE29
:100E1000401B6428F6D9C3E020F48030306030688D
:100E200020F480203060FFF749FE0546B8F1000F3E
:100E3000E8D1306810F4003F06D0FFF73FFE411BB9
:100E400003206429F5D913E19AF80000AD4C80071E
:100E500031D5786810F00C0F1CD0786800F00C00C9
:100E6000082804BF386810F4800F13D0DAF80C009B
:100E7000002800F0978001202060FFF71FFE054644
:100E8000306810F0020F0ED1FFF718FE401B022849
:100E9000F6D985E0306810F0020F1CBFDAF80C00BC
:100EA000012840F0E4803068DAF8101020F0F800F3
:100EB00040EAC10030609AF80000000722D5DAF855
:100EC000140078B10120C4F8800EFFF7F7FD054645
:100ED000386F10F0020F15D1FFF7F0FD401B02280C
:100EE000F6D95DE00020C4F8800EFFF7E7FD054667
:100EF000386F10F0020F05D0FFF7E0FD401B02280D
:100F0000F6D94DE09AF80000A34640077CD5F86B6F
:100F10004FF0000810F0805F0CD1CDF800804FF04A
:100F20000108F86B40F08050F863F86B00F08050D7
:100F3000009000987448305810F4807F12D17248A5
:100F4000315841F480713150FFF7B8FD05466E48C5
:100F5000305810F4807F05D1FFF7B0FD401B022808
:100F6000F5D91DE0DAF80890B9F1010F06D0F86E56
:100F7000B9F1050F27D140F00400F866F86E40F093
:100F80000100F866FFF79AFD054641F28834F86ED5
:100F900010F0020F31D1FFF791FD401BA042F6D9AE
:100FA000032065E000202060FFF788FD05463068DB
:100FB00010F0020F3FF47FAFFFF780FD411B0320CD
:100FC0000229F4D954E020F00100F866F86E20F010
:100FD0000400F866FFF772FD0546B9F1000FD4D1A1
:100FE00041F28839F86E10F0020F06D0FFF766FD67
:100FF000411B03204945F5D93AE0B8F1010F02BF82
:10100000F86B20F08050F863DAF81840002C72D0AA
:10101000786800F00C0008282ED1012C27D0386801
:10102000DAF81C1000F480028A4220D1DAF820108D
:1010300000F03F028A421AD1DAF8242047F6C07144
:101040000140B1EB821F12D1DAF828104FF6FF727F
:10105000C903914300F44032A1F580318A4206D1A0
:10106000DAF82C1000F07060B0EB016F43D0012073
:10107000C0B201B0BDE8F08F0020CBF86000FFF7F0
:101080001DFD0546022C0BD15C46306810F0007F38
:1010900011D0FFF713FD411B03200229F5D9E7E723
:1010A000306810F0007F26D0FFF708FD411B0320B9
:1010B0000229F5D9DCE70AF11C052FCD0843D90335
:1010C00040EA82104FF6FF72914340EA0560A1F5B5
:1010D00080310843386001202066FFF7EFFC0446AA
:1010E000306810F0007F06D1FFF7E8FC011B0320F9
:1010F0000229F5D9BCE70020BAE700BF003802405A
:1011000004380240000047420038FEFF411E002024
:10111000B0EB116F1CBF01207047044AF0235160EF
:1011200003490B70072190601160704710E000E0E8
:1011300023ED00E07047704790F83C300222012B0D
:1011400035D010B5012380F83C3080F83D2002688E
:10115000D2F804E0D2F808C00C68B2F1804F2EF04B
:10116000700343EA04035360BDE8104014D04F4BB2
:101170009A421CBF4E4B9A420ED04E4B9A421CBF15
:101180004D4B9A4208D0DA4B9A421CBF4B4B9A42C5
:1011900002D04B4B9A4204D149682CF0800319438A
:1011A00091600121002280F83D1080F83C20D0B2EF
:1011B000704700BF10B5044634B394F83D0028B919
:1011C000002084F83C00204600F020F80220211D79
:1011D00084F83D00206800F067FA012084F846009A
:1011E00084F83E0084F83F0084F8400084F8410011
:1011F00084F8420084F8430084F8440084F84500F1
:1012000084F83D00002010BD012010BD0068F449A5
:10121000884218BF7047E0B50020002201900948BD
:10122000016841F0010101600021006800F0010047
:10123000019001981920FFF7ADFC1920BDE88C4002
:10124000FFF79ABC4438024090F83D1001291CBFBA
:1012500001207047022180F83D100068C168B0F19C
:10126000804F41F00101C16014D0104988421CBF79
:101270000F4988420ED00F4988421CBF0E49884250
:1012800008D0D74988421CBF0C49884202D00C497B
:10129000884204D1816801F00701062903D0016862
:1012A00041F0010101600020704700BF00040040D0
:1012B00000080040000C00400018004000400140C1
:1012C0000004014010B50446022094F83C20012A95
:1012D00070D001224FF6777384F83C2084F83D00EB
:1012E000206882689A4382600A6812B3102A20D06C
:1012F000202A18BF302A1CD0402A21D0502A2BD0B7
:10130000602A35D0B2F5005F3ED0B2F5805F4AD09A
:10131000702A51D1D1E90123C9681A4342EA012157
:10132000826822F47F4211438160816841F0770135
:1013300038E0816821F07701114341F0070131E085
:101340004B68CA68194600F01FFA2068816821F0CE
:10135000770141F0470125E04B68CA68194600F063
:1013600013FA2068816821F0770141F0570119E0F4
:101370004B68CA68194600F018FA2068816821F0A5
:10138000770141F067010DE0D1E90123C9681A43F3
:1013900042EA0121826822F47F4211438160816820
:1013A00041F4804181600020012184F83D1000213A
:1013B00084F83C10C0B210BD0120F5E77047B0B50D
:1013C00004462068C168026901EA0205A90714D52C
:1013D0006FF00201016101212177806910F0030F94
:1013E00003D02046FFF7EAFF05E0204600F074F83E
:1013F000204600F072F800202077680715D5206895
:101400006FF00401016102212177806910F4407FAF
:1014100003D02046FFF7D2FF05E0204600F05CF83D
:10142000204600F05AF800202077280715D52068BC
:101430006FF00801016104212177C06910F0030FEA
:1014400003D02046FFF7BAFF05E0204600F044F83D
:10145000204600F042F800202077E80615D52068E5
:101460006FF01001016108212177C06910F4407FFD
:1014700003D02046FFF7A2FF05E0204600F02CF83D
:10148000204600F02AF800202077E80706D02068E0
:101490006FF001010161204600F020F8280606D512
:1014A00020686FF0800101612046FFF743FE680667
:1014B00006D520686FF040010161204600F01CF85D
:1014C000A80658BFB0BD20686FF02001016120461A
:1014D000BDE8B040FFF72FBE704770470068A349D2
:1014E000884218BF704703480168013101607047A6
:1014F00000000140E80000207047FEE780B5C148C9
:101500000B494FF410220160032141600021C0E922
:10151000021102614FF40012426181838161FFF781
:1015200012F918B1BDE88040FEF781BF80BD00BF51
:101530000064004083B0002102911048026842F02C
:1015400001020260026802F001020292029A019115
:10155000026842F008020260026802F0080201928A
:10156000019A0091016841F080010160006800F07B
:1015700080000090009803B0704700BF30380240F0
:10158000FEB50021AA48A72340F2E73CCDE90411AB
:10159000CDE90211CDE90011744AC0E90023C0E988
:1015A000021CC0E904118161FFF704FE08B1FEF7D7
:1015B0003EFF4FF4805002A902909D48FFF782FE43
:1015C00008B1FEF734FF00206946CDE900009848D5
:1015D000FFF7B2FD08B1FEF72AFF06B080BD00BFDD
:1015E00000000140FEE7FEE770477047FFF76ABA68
:1015F000B0B592B0002401A81421CDE90A44CDE988
:101600000844FEF7A8FE009402251F48016841F037
:1016100080510160006800F08050009000980094B4
:101620001A48016841F480410160006800F480407C
:1016300000900098012006904FF4803007904FF4FE
:1016400080000C950D9006200E90A820CDE90F0586
:101650000420119006A8FFF79FFB08B172B6FEE7C1
:101660000F200521CDE901054FF4A050039404900B
:101670004FF48050059001A8FFF7C8FA08B172B680
:10168000FEE712B0B0BD00BF40380240007000401D
:101690000248016841F470010160704788ED00E084
:1016A0006348FFF78CBE00BF0268B0F1804F0ED0D8
:1016B0002A4B98421CBF2A4B984208D0294B98428B
:1016C0001CBF294B984202D0284B984203D14B684B
:1016D00022F070021A43B0F1804F20D01F4B984285
:1016E0001CBF1F4B98421AD01E4B98421CBF204B68
:1016F000984214D01F4B98421CBF1F4B98420ED0EB
:101700001A4B98421CBF184B984208D01B4B98426A
:101710001CBF1B4B984202D01A4B984203D1CB6896
:1017200022F440721A434B6922F080021A4302608D
:101730008A68C2620A68826240F480620A4B9A42F6
:1017400004BF0969016301214161016911F0010FC1
:101750001EBF016921F001010161704700040040D2
:1017600000080040000C004000040140000001405F
:1017700000180040001C00400020004000400140D4
:101780000048014000440140D0F820C0036A23F023
:1017900001030362836923F0F00343EA02128261CA
:1017A0002CF00A02114301627047D0F820C0036A8E
:1017B00023F010030362836923F4704343EA023287
:1017C00082612CF0A00242EA011101627047FEE73B
:1017D000B0B58AB0012000216C460890CDE9061012
:1017E00020461821FEF7B7FD064D21462846FEF794
:1017F00035FE2846FFF767F828460221FEF719FE56
:101800000AB0B0BD7800002080B5FFF761F9FFF79E
:10181000EFFEFFF78FFEFFF771FEFFF7B1FE044802
:10182000FFF712FDFFF7D4FF024801684160FEE7B1
:10183000A0000020700000204FF04070E1EE100A80
:1018400070470000000000000000010203040607CA
:1018500008090000781800080000002010000000AF
:10186000C40100088818000810000020E0060000ED
:10187000E00100080000000001000000100000006E
:08188000000000000024F40048
:040000050800018965
:00000001FF
