:020000040800F2
:100000002807002029020008611F0008CF1C0008F3
:100010005D1F00081F040008A72100080000000061
:10002000000000000000000000000000671F000842
:100030003504000800000000651F0008691F000863
:10004000430200084302000843020008430200087C
:10005000430200084302000843020008430200086C
:10006000430200084302000843020008430200085C
:10007000430200084302000843020008430200084C
:10008000430200084302000843020008430200083C
:100090002504000843020008430200084302000848
:1000A0004302000839200008430200084302000808
:1000B000430200084302000843020008430200080C
:1000C00043020008430200084302000843020008FC
:1000D00043020008430200084302000843020008EC
:1000E00043020008430200084302000843020008DC
:1000F00043020008430200084302000843020008CC
:1001000043020008430200084302000843020008BB
:1001100043020008430200084302000843020008AB
:10012000430200084302000843020008430200089B
:10013000430200084302000843020008430200088B
:10014000430200084302000843020008430200087B
:10015000430200084302000843020008430200086B
:10016000430200084302000843020008430200085B
:100170004302000843020008430200080000000098
:10018000430200084302000800F002F800F03CF8C7
:100190000AA090E8000C82448344AAF10107DA45E2
:1001A00001D100F031F8AFF2090EBAE80F0013F0F8
:1001B000010F18BFFB1A43F001031847B4200000D9
:1001C000D4200000103A24BF78C878C1FAD852076A
:1001D00024BF30C830C144BF04680C6070470000C1
:1001E0000023002400250026103A28BF78C1FBD840
:1001F000520728BF30C148BF0B6070471FB502F0DF
:1002000025F81FBD10B510BD00F0CFF81146FFF75F
:10021000F5FF02F005F800F0EDF803B4FFF7F2FF88
:1002200003BC00F0F5F80000094880470948004782
:10023000FEE7FEE7FEE7FEE7FEE7FEE7FEE7FEE796
:10024000FEE7FEE704480549054A064B70470000F3
:100250002520000889010008280100202807002027
:10026000280300202803002053EA020C00F06980D4
:100270002DE9F04B4FF00006002B1FBFB3FA83F5BA
:1002800003FA05F424FA05F65E4012BF1643B2FAEB
:1002900082F502FA05F4C5F120051EBF22FA05FC1D
:1002A00044EA0C04203556EA044C4FEA144418BFC3
:1002B000641C4FF000084FF00009904271EB030CF2
:1002C00039D3002919BFB1FA81F701FA07F6B0FA5C
:1002D00080F700FA07F6C7F120071EBF20FA07FCD7
:1002E00046EA0C062037B6FBF4FCA7EB0507103FE7
:1002F00007F01F0BCBF120060CFA0BFB2CFA06F6CD
:1003000044BFB3460026202FA4BF5E464FF0000B2B
:100310005BEA060C08BF4FF0010B19EB0B09ABFBB6
:10032000027C48EB0608C01B06FB02CC0BFB03CC8F
:1003300071EB0C01C1E70B46024641464846BDE859
:10034000F08B13B54FF000004FF00001AFF30080C9
:10035000BDE81C4070474FF0000200B513469446BC
:100360009646203922BFA0E80C50A0E80C50B1F10D
:100370002001BFF4F7AF090728BFA0E80C5048BF21
:100380000CC05DF804EB890028BF40F8042B08BFBF
:10039000704748BF20F8022B11F0804F18BF00F8BB
:1003A000012B7047704770477047754600F02CF876
:1003B000AE4605006946534620F00700854618B052
:1003C00020B5FFF73FFFBDE820404FF000064FF09B
:1003D00000074FF000084FF0000B21F00701AC467A
:1003E000ACE8C009ACE8C009ACE8C009ACE8C00999
:1003F0008D46704710B50446AFF300802046BDE837
:100400001040FFF70ABF000000487047C8000020F6
:1004100001491820ABBEFEE726000200704700BF6E
:10042000FEE7000010B5024800F01FFA10BD000002
:1004300024000020704772B600BFFEE710B50246E8
:1004400092F82030012B01D0022B06D110684069B0
:10045000084314686061002010BD506A40F4802099
:1004600050620120F8E7F0B504460D461E4694F8A8
:10047000207020688368A86800B900E000BF012FE1
:1004800001D0022F7DD103F0806030B903F000600D
:1004900018B903F0805000287ED0C3F30161012019
:1004A00088403060A86860B9B5F800C0E86840EAE4
:1004B0004C5C206800F5C07000EB0110C0F800C073
:1004C0000FE0D5E901C040EACC00D5F80CC040EA05
:1004D0000C00D4F800C00CF5C07C0CEB011CCCF86F
:1004E0000000D5F810C0206800F5C07000EB0110C6
:1004F000C0F804C0287D01280ED1206800F5C07026
:1005000000EB0110406840F4807C206800F5C0706A
:1005100000EB0110C0F804C0D079000692F806C0C4
:1005200040EA0C4092F805C040EA0C2092F804C062
:1005300040EA0C00D4F800C00CF5C07C0CEB011CA8
:10054000CCF80C00D078000692F802C040EA0C40CB
:1005500092F801C040EA0C2092F800C040EA0C007A
:10056000D4F800C00CF5C07C0CEB011CCCF80800E2
:10057000206800F5C07000EB0110006840F0010C2D
:1005800001E00FE008E0206800F5C07000EB01100A
:10059000C0F800C00020F0BD606A40F40010606246
:1005A0000120F8E7606A40F4802060620120F2E7F1
:1005B000F0B504460A46216894F82050012D01D078
:1005C000022D7ED1424901F50071086840F001001A
:1005D0000860086820F47C5008600868566A40EAA1
:1005E00006200860107D00F01F06012000FA06F3C7
:1005F000C8699843C861A1F50071D069C8B9D1F83C
:100600000C029843C1F80C02908880B2968940EAA7
:10061000064601F51070576940F83760108880B2BF
:10062000168940EA064601F51070576900EBC700CD
:100630004660D069012819D1D1F80C021843C1F8DD
:100640000C02908880B2168840EA064601F51070C8
:10065000576940F83760908980B2168940EA0646AB
:1006600001F51070576900EBC7004660906928B922
:10067000D1F804029843C1F8040204E0D1F804025E
:100680001843C1F80402106928B9D1F8140298433C
:10069000C1F8140204E0D1F814021843C1F814029E
:1006A000106A012804D1D1F81C021843C1F81C02B9
:1006B000D1F8000220F00100C1F800020020F0BDD6
:1006C000FFE7606A40F4802060620120F7E70000E5
:1006D00000640040704770B5044694F82050012D26
:1006E00001D0022D7DD151B92068C06800F003000F
:1006F00080B9606A40F400106062012070BD20681B
:10070000006900F0030028B9606A40F400106062DC
:100710000120F3E7206800F5D87000EB01100068B5
:1007200000F004009060906840B9206800F5D8702F
:1007300000EB01100068400D106007E0206800F534
:10074000D87000EB01100068C0085060206800F508
:10075000D87000EB0110006800F00200D060206843
:1007600000F5D87000EB0110406800F00F00082879
:1007700002D30820106108E0206800F5D87000EB73
:100780000110406800F00F001061206800F5D8707B
:1007900000EB0110406800F47F40000A906120687F
:1007A00000F5D87000EB01104068000C5061206823
:1007B00000F5D87000EB011080681870206800F513
:1007C000D87000EB0110806800F47F40000A587078
:1007D000206800F5D87000EB0110806800F47F00FD
:1007E00000E03CE0000C9870206800F5D87000EB49
:1007F00001108068000ED870206800F5D87000EBFA
:100800000110C0681871206800F5D87000EB011065
:10081000C06800F47F40000A5871206800F5D87065
:1008200000EB0110C06800F47F00000C9871206894
:1008300000F5D87000EB0110C068000ED87131B916
:100840002068C06840F020002668F06005E020685D
:10085000006940F020002668306100204EE7606AA1
:1008600040F480206062012048E72DE9F05F0446F3
:100870000025206846692068D0F8049020688768C1
:100880002068D0F80CA02068D0F810B02068D0F80C
:10089000188006F00100002855D007F00100C0B113
:1008A00001202168886007F0020018B1204600F09E
:1008B00050FA0EE007F0040010B145F4006508E0BE
:1008C00007F0080010B145F4805502E0204600F022
:1008D0003FFA07F48070C8B14FF4807021688860D7
:1008E00007F4007018B1204600F035FA0EE007F466
:1008F000806010B145F4005508E007F4006010B1C5
:1009000045F4804502E0204600F024FA07F48030E8
:10091000C8B14FF480302168886007F4003018B106
:10092000204600F01AFA0EE007F4802010B145F4DA
:10093000004508E007F4002010B145F4803502E0DE
:10094000204600F009FA06F0080038B10AF010005D
:1009500020B145F4007510202168C86006F004003D
:1009600040B10AF0080028B108202168C86020467C
:1009700000F0A8F906F0020038B12068C06800F065
:10098000030010B1204600F09FF906F0400038B196
:100990000BF0100020B145F480651020216808613B
:1009A00006F0200040B10BF0080028B108202168B3
:1009B0000861204600F09AF906F0100038B120686E
:1009C000006900F0030010B1204600F090F906F431
:1009D000003040B109F0100028B1102021684860B3
:1009E000204600F085F906F4803040B109F0080097
:1009F00028B1082021684860204600F0AFF906F4CD
:100A0000004088B309F0040078B306F4807020B188
:100A100008F0010008B145F0010506F4007020B1AE
:100A200008F0020008B145F0020506F4806020B12C
:100A300008F0040008B145F0040506F40060A0B118
:100A400008F0700088B108F07000402817D006DC6C
:100A500010280BD020280CD0302819D10CE05028B9
:100A600010D0602814D110E01DE019E045F0080511
:100A70000FE045F010050CE045F0200509E045F0D9
:100A8000400506E045F0800503E045F4807500E090
:100A900000BF00BF2068806920F070002168886175
:100AA0000420216848602DB1606A284360622046B6
:100AB000FFF710FEBDE8F09F70B504460CB90120A9
:100AC00070BD94F8200010B9204600F0AFF82068FF
:100AD000006840F001002168086000F03BFA05461C
:100AE0000DE000F037FA401B0A2808D9606A40F48C
:100AF00000306062052084F820000120E0E72068D3
:100B0000406800F001000028EBD02068006820F069
:100B100002002168086000F01DFA05460DE000F0B3
:100B200019FA401B0A2808D9606A40F40030606254
:100B3000052084F820000120C2E72068406800F00A
:100B400002000028EBD1207E012806D12068006831
:100B500040F080002168086005E02068006820F00F
:100B6000800021680860607E012806D12068006846
:100B700040F040002168086005E02068006820F02F
:100B8000400021680860A07E012806D12068006826
:100B900040F020002168086005E02068006820F02F
:100BA000200021680860E07E012806D120680068E6
:100BB00020F010002168086005E02068006840F01F
:100BC000100021680860207F012806D12068006895
:100BD00040F008002168086005E02068006820F007
:100BE000080021680860607F012806D1206800683D
:100BF00040F004002168086005E02068006820F0EB
:100C0000040021680860D4E902010843216908430F
:100C1000616908436168491E08432168C861002072
:100C20006062012084F82000002049E710B586B0FA
:100C30000446142101A8FFF78EFB1F492068884253
:100C400037D100BF002000901C48006840F00070C1
:100C50001A4908600846006800F00070009000BF64
:100C600000BF00BF0020009014481038006840F01A
:100C700008001249103908600846006800F00800B2
:100C8000009000BF00BF03200190022002900020CE
:100C90000390032004900920059001A9084800F062
:100CA0005FF800221146142000F0E2F9142000F051
:100CB000CBF906B010BD000000640040403802408F
:100CC000000C02407047000010B58AB0044601AB2A
:100CD00003AA00212046FFF7FEFC01A9024800F00C
:100CE000F8FF0AB010BD0000AC000020704770474C
:100CF000704770B5044694F82000012822D10220E4
:100D000084F820002068006820F001002168086055
:100D100000F020F905460DE000F01CF9401B0A2800
:100D200008D9606A40F400306062052084F8200031
:100D3000012070BD2068406800F001000028EBD160
:100D40006062F6E7606A40F4002060620120F0E72C
:100D50007047704770477047704770477047000092
:100D6000F8B502460B460025002400200021D6E0FD
:100D7000012606FA01F51E6806EA0504AC4274D1A4
:100D80001E7906F00306012E04D01E7906F0030634
:100D9000022E13D190684F000326BE40B0434F008F
:100DA000DE68BE4030439060506801268E40B043FC
:100DB0001E79C6F300168E40304350601E7906F04F
:100DC0000306032E09D0D0684F000326BE40B0436F
:100DD0004F009E68BE403043D0601E7906F0030687
:100DE000022E13D1CF0802F1200656F827004E0735
:100DF000F70E0F26BE40B0434F07FF0E1E69BE40E0
:100E00003043CF0802F1200646F8270010684F0053
:100E10000326BE40B0431E7906F003064F00BE40D5
:100E2000304310605E6806F44036002E76D000BF76
:100E3000002600963C4E366846F480463A4F3E60A7
:100E40003E46366806F48046009600BF00BF374E27
:100E50008F0856F827008E07370F0F26BE40B04385
:100E6000334EB24202D1002624E057E0314EB24266
:100E700001D101261EE0304EB24201D1022619E016
:100E80002E4EB24201D1032614E02D4EB24201D1C2
:100E900004260FE02B4EB24201D105260AE02A4E6D
:100EA000B24201D1062605E0284EB24201D1072602
:100EB00000E008268F073F0FBE4030431B4E8F08CF
:100EC00046F82700224E3068A0435E6806F480167C
:100ED00006B120431E4E3060361D3068A0435E6868
:100EE00006F4001606B12043194E361D3060184E28
:100EF000361F3068A0435E6806F4003606B1204312
:100F0000134E361F3060361F3068A0435E6806F40B
:100F1000803606B120430E4E083E3060491C102931
:100F2000FFF426AFF8BD0000443802400838014005
:100F3000000002400004024000080240000C024091
:100F4000001002400014024000180240001C024041
:100F5000083C014001480068704700000400002080
:100F6000034800680349097808440149086070474C
:100F7000040000200C00002010B50D48006840F46B
:100F800000700B4908600846006840F48060086003
:100F90000846006840F480700860032000F0A6F85E
:100FA0000F2000F007F800F02BF8002010BD000023
:100FB000003C024070B504460E4800784FF47A7148
:100FC000B1FBF0F00C490968B1FBF0F5284600F0E0
:100FD00009FC08B1012070BD102C07D20022214667
:100FE000501E00F045F80548046001E00120F2E7DA
:100FF0000020F0E70C000020100000200800002076
:1010000008B500BF002000900E48006840F4804002
:101010000C4908600846006800F48040009000BF5A
:1010200000BF00BF00200090081F006840F0805003
:10103000091F08600846006800F08050009000BF5B
:1010400000BF08BD443802400146084600280DDBB9
:1010500000BF00BF00F01F0301229A4043099B001C
:1010600003F1E023C3F8002100BF00BF00BF7047B9
:101070002DE9F05F80460D461646002701F096F8F0
:10108000074639462A46334601F00700C0F1070AF1
:10109000BAF1040F02D94FF0040A01E0C0F1070AC7
:1010A000D14600F1040ABAF1070F02D24FF0000A4C
:1010B00001E0A0F1030AD4464FF0010A0AFA09FA46
:1010C000AAF1010A0AEA020A0AFA0CFA4FF0010B25
:1010D0000BFA0CFBABF1010B0BEA030B4AEA0B0416
:1010E0002146404601F06AF8BDE8F09F00BF00F0DD
:1010F0000702064B19684FF6FF031940044B0B43D8
:1011000043EA0221014B196000BF70470CED00E07B
:101110000000FA0570B504460D460CB9012070BDFB
:101120005848006800F00700A84209D255490D70E0
:101130000846006800F00700A84201D00120EEE751
:10114000207800F0020002281DD1207800F0040071
:10115000042805D14C48006840F4E0504A49086032
:10116000207800F00800082805D14748006840F4BE
:101170006040454908604448006820F0F000A168DC
:10118000084341490860207800F00100A8B3606876
:10119000012807D13C4808380068C0F34040B8B97E
:1011A0000120BCE76068022802D06068032807D1EC
:1011B000354808380068C0F3406048B90120AEE700
:1011C000314808380068C0F3400008B90120A6E79C
:1011D0002D48006820F00300616808432A49086030
:1011E000FFF7B8FE064609E0FFF7B4FE801B41F2A8
:1011F0008831884202D9032091E707E0224800683D
:1012000000F00C006168B0EB810FEDD11D48006863
:1012100000F00700A84209D91A490D700846006875
:1012200000F00700A84201D0012078E7207800F004
:101230000400042807D11448006820F4E050E16855
:10124000084311490860207800F00800082808D1F8
:101250000D48006820F46040216940EAC1000A4955
:10126000086000F019F808490968C1F30311074A3A
:10127000515CC8400649086006480068FFF79AFEBE
:1012800000204CE7003C024008380240562200088B
:1012900010000020080000202DE9F0470024002560
:1012A0000026A1462548006800F00C0020B1042863
:1012B00005D008283AD105E0DFF8849039E0DFF85E
:1012C000849036E01D48001F006800F03F041B4872
:1012D000001F006800F4800078B11A481749091F00
:1012E0000968C1F38811A0FB017001462246002362
:1012F0003846FEF7B9FF05460EE011480F49091FB1
:101300000968C1F38811A0FB017001462246002341
:101310003846FEF7A9FF05460848001F0068C0F3DD
:101320000140401C4600B5FBF6F902E0DFF81090E2
:1013300000BF00BF4846BDE8F08700000838024003
:101340000024F400001BB700F8B504460CB90120D6
:10135000F8BD207800F00100002874D0F94800683A
:1013600000F00C0004280DD0F648006800F00C00D6
:10137000082813D1F348001F006800F48000B0F57E
:10138000800F0BD1EF4808380068C0F340400028B8
:1013900059D06068002856D10120D9E700BF6068A5
:1013A000B0F5803F08D1E7480838006840F4803045
:1013B000E449083908601EE06068B0F5A02F0DD13F
:1013C000E0480838006840F48020DE4908390860A9
:1013D0000846006840F4803008600CE0D9480838BE
:1013E000006820F48030D749083908600846006852
:1013F00020F48020086000BF606890B1FFF7AAFD6C
:10140000054606E0FFF7A6FD401B642801D903202E
:101410009EE7CC4808380068C0F340400028F1D06F
:1014200011E0FFF797FD054606E0FFF793FD401B2F
:10143000642801D903208BE7C24808380068C0F34C
:1014400040400028F1D1207800F0020002285FD14E
:10145000BC48006800F00C0058B1BA48006800F0C1
:101460000C0008281CD1B748001F006800F4800059
:10147000B0B9B44808380068C0F3400020B1E06853
:10148000012801D0012063E7AE480838006820F049
:10149000F800216940EAC100AA490839086037E02C
:1014A000E06800B30120A8490860FFF753FD054636
:1014B00006E0FFF74FFD401B022801D9032047E754
:1014C000A04808380068C0F340000028F1D09D48CB
:1014D0000838006820F0F800216940EAC100994905
:1014E0000839086014E0002097490860FFF732FDD2
:1014F000054606E0FFF72EFD401B022801D9032018
:1015000026E7904808380068C0F340000028F1D171
:10151000207800F0080008282CD16069A8B10120CB
:101520008A490860FFF716FD054606E0FFF712FD41
:10153000401B022801D903200AE782486C3000686A
:10154000C0F340000028F1D014E000207F4908607B
:10155000FFF700FD054606E0FFF7FCFC401B0228F4
:1015600001D90320F4E677486C300068C0F34000EE
:101570000028F1D1207800F00400042870D1002761
:1015800070483830006800F0805090B900BF0020EB
:1015900000906C483830006840F08050694938311C
:1015A00008600846006800F08050009000BF00BF4F
:1015B00001276748006800F48070B0B9644800688B
:1015C00040F4807062490860FFF7C4FC054606E0FD
:1015D000FFF7C0FC401B022801D90320B8E65C4895
:1015E000006800F480700028F2D000BFA0680128D5
:1015F00008D154486830006840F001005149683112
:1016000008601DE0A06805280DD14E4868300068CC
:1016100040F004004B49683108600846006840F01B
:10162000010008600CE047486830006820F00100C5
:101630004449683108600846006820F004000860EA
:1016400000BFA068A8B1FFF785FC054609E0FFF7D9
:1016500081FC401B41F28831884202D9032077E6A1
:1016600026E0384868300068C0F340000028EED01B
:1016700013E0FFF76FFC054608E0FFF76BFC401B2B
:1016800041F28831884201D9032061E62D48683053
:101690000068C0F340000028EFD1012F07D129488E
:1016A0003830006820F0805026493831086000BF8B
:1016B000A069002845D02348006800F00C000828E5
:1016C0005DD0A069022845D100201F490866FFF7B8
:1016D00041FC054606E0FFF73DFC401B022801D90E
:1016E000032035E6174808380068C0F3406000283A
:1016F000F1D1D4E907010843616A40EA811101226E
:10170000A06AC2EB500041EA00412C20005D41EA92
:1017100000600C49091F086001200B490866FFF7AB
:1017200019FC054606E0FFF715FC401B022801D90D
:1017300003200DE6034808380068C0F34060002825
:10174000F1D049E00838024000004742800E47428D
:1017500000700040002021490866FFF7FBFB0546AA
:1017600006E0FFF7F7FB401B022801D90320EFE555
:101770001B480068C0F340600028F2D12CE0A0694B
:10178000012800D1E4E51648001D0668A06901287B
:1017900020D006F48001E06981421BD106F03F01B0
:1017A000206A814216D147F6C0703040616AB0EBC2
:1017B000811F0FD106F440310122A06AC2EB500014
:1017C000B1EB004F06D106F070612C20005DB1EB4B
:1017D000006F01D00120BBE50020B9E500004742C1
:1017E0000038024070B504462546681EB0F1807F7F
:1017F00001D301200FE0681E4FF0E02148610F2166
:101800004FF0FF3000F0DAFC00204FF0E02188615B
:1018100007200861002070BD7047704730B5024650
:101820000B4600BF92F83C00012801D1022030BDD8
:10183000012082F83C0000BF022082F83D001068C1
:1018400044681068816824F07004186804431068C4
:101850004460184D1068A8421BD01068B0F1804F4A
:1018600017D0154D1068A84213D0144D1068A84227
:101870000FD0134D1068A8420BD0124D1068A8422B
:1018800007D0114D1068A84203D0104D1068A8422F
:1018900005D121F080015868014310688160012062
:1018A00082F83D0000BF002082F83C0000BF00BF6E
:1018B000BDE70000000001400004004000080040B7
:1018C000000C0040000401400040014000180040AE
:1018D00010B504460CB9012010BD94F83D0028B99C
:1018E000002084F83C00204600F026F8022084F80E
:1018F0003D00211D206800F0A7FB012084F8460070
:1019000000BF84F83E0001213F20015540200155D1
:101910004120015500BF00BF012084F84200432050
:101920000155442001554520015500BF012084F890
:101930003D000020D0E7000038B504460E4920687D
:10194000884217D100BF002000900C48006840F08A
:1019500001000A4908600846006800F00100009094
:1019600000BF00BF002211461920FFF781FB19209C
:10197000FFF76AFB38BD0000000001404438024018
:10198000014691F83D00012801D001207047022056
:1019900081F83D000868C06840F001000B68D8601D
:1019A0001A4B086898421BD00868B0F1804F17D0D6
:1019B000174B0868984213D0164B086898420FD00E
:1019C000154B086898420BD0144B0868984207D012
:1019D000134B0868984203D0124B086898420CD108
:1019E0000868806800F00702062A0CD008680068C2
:1019F00040F001000B68186005E00868006840F0DE
:101A000001000B6818600020C0E7000000000140E2
:101A10000004004000080040000C004000040140A9
:101A200000400140001800402DE9F04104460D46F9
:101A3000002700BF94F83C00012802D10220BDE835
:101A4000F081012084F83C0000BF022084F83D00B2
:101A50002068866826F0770626F47F462068866030
:101A60002868502833D00CDC202850D004DC002813
:101A70004BD0102851D149E0302849D040284CD1D2
:101A800039E060282DD0702807D0B0F5805F03D0F2
:101A9000B0F5005F41D10DE041E0D5E902136A687D
:101AA000206800F045FB2068866846F077062068CD
:101AB000866034E0D5E902136A68206800F038FBDC
:101AC0002068806840F480402168886027E0EA68E8
:101AD0006968206800F040FB5021206800F033FB6B
:101AE0001DE0EA686968206800F049FB6021206811
:101AF00000F029FB13E0EA686968206800F02CFB1D
:101B00004021206800F01FFB09E000BF00BF00BFBC
:101B10002968206800F017FB01E0012700BF00BF23
:101B2000012084F83D0000BF002084F83C0000BF85
:101B3000384684E7704770B504462068C568206859
:101B4000066906F00200022819D105F002000228F9
:101B500015D1401F21680861012020772068806925
:101B600000F0030018B12046FFF7E4FF05E020462F
:101B700000F097F8204600F095F80020207706F056
:101B80000400042819D105F00400042815D1C0432D
:101B900021680861022020772068806900F4407085
:101BA00018B12046FFF7C6FF05E0204600F079F89F
:101BB000204600F077F80020207706F0080008287B
:101BC00019D105F00800082815D1C0432168086123
:101BD000042020772068C06900F0030018B1204677
:101BE000FFF7A8FF05E0204600F05BF8204600F074
:101BF00059F80020207706F01000102819D105F0C0
:101C00001000102815D1C0432168086108202077F2
:101C10002068C06900F4407018B12046FFF78AFFC1
:101C200005E0204600F03DF8204600F03BF800209B
:101C3000207706F0010048B105F0010030B16FF0E7
:101C4000010021680861204600F02EF806F08000AF
:101C5000802809D105F08000802805D1C043216883
:101C600008612046FFF7D8FD06F04000402809D162
:101C700005F04000402805D1C04321680861204696
:101C800000F024F806F02000202809D105F02000FB
:101C9000202805D1C043216808612046FFF7BDFD1B
:101CA00070BD70477047000010B5044605492068B4
:101CB000884206D104480068401C0349086000F0CF
:101CC000AFF810BD0000014000000020704700BFC9
:101CD000FEE70A789A2A19D14A7853B203728A78B1
:101CE00012B9CA7812020AB1012300E0002343812D
:101CF0000A7912B94A7912020AB1012300E00023DD
:101D000083818A798276CA79C27642E00A789D2AEE
:101D10001ED14A7853B203728A7812B9CA78120275
:101D20000AB1012300E00023C3810A7912B94A797C
:101D300012020AB1012300E0002303828A7912B95A
:101D4000CA7912020AB1012300E00023438220E095
:101D50000A789C2A1DD14A7853B203728A7812B944
:101D6000CA7812020AB1012300E00023C3800A7975
:101D700012B94A7912020AB1012200E0002242801F
:101D80008A7912B9CA7912020AB1012300E000234C
:101D90008380704738B505460C4605F5A0700649A6
:101DA000086000208860C860082008616B462246F1
:101DB0000248FEF758FB38BD9400002024000020A4
:101DC00001700022428000238380C380838143818D
:101DD00003720275C38203838276C2767047000065
:101DE00070B505460C46002003E000210B4A115453
:101DF000401C0828F9DB1CB99A200849087008E043
:101E0000012C03D19C200549087002E09D20034964
:101E1000087002492846FFF7BDFF70BD140000207E
:101E200010B5034908780121FFF7DAFF10BD000063
:101E3000AC00002010B501210148FFF7C1FF10BD23
:101E4000AC00002010B50E480E4908600320486021
:101E500000210C488160C1604FF4102101614FF4F2
:101E6000001141610021017641768176C1760177CA
:101E70004177FEF721FE08B1FEF7DDFA10BD000044
:101E8000006400402400002008B500BF002000903E
:101E90001548006840F001001349086008460068D2
:101EA00000F00100009000BF00BF00BF00200090C4
:101EB0000846006840F0080008600846006800F026
:101EC0000800009000BF00BF00BF0020009008463F
:101ED000006840F0800008600846006800F080005C
:101EE000009000BF00BF08BD3038024000B587B089
:101EF00000200390049005900690019002901548F0
:101F000015490860A720486000211348816040F20D
:101F1000E731C1600021016141618161FFF7D8FCB7
:101F200008B1FEF788FA4FF48050039003A90A48DD
:101F3000FFF77AFD08B1FEF77EFA002001900290CB
:101F400001A90548FFF76AFC08B1FEF774FA07B06B
:101F500000BD0000000001404C00002000BFFEE773
:101F600000BFFEE77047704710B5FEF7F9FF10BDE0
:101F700000B593B0302107A8FEF7EDF9142102A8AF
:101F8000FEF7E9F900BF002001902448006840F006
:101F90008050224908600846006800F08050019097
:101FA00000BF00BF00BF002001901D48006840F442
:101FB00080401B4908600846006800F4804001909A
:101FC00000BF00BF012007900004089002200D9080
:101FD00041050E9106210F91A82110910221119126
:101FE0000421129107A8FFF7AFF908B1FEF723FA11
:101FF0000F20029002200390002004904FF4A05084
:1020000005904FF480500690052102A8FFF782F852
:1020100008B1FEF710FA13B000BD000040380240CE
:10202000007000400348006840F4700001490860F7
:102030007047000088ED00E010B50248FFF77BFD17
:1020400010BD00004C00002010B502682D4B9842D6
:102050000ED0B0F1804F0BD02B4B984208D02B4BB9
:10206000984205D02A4B984202D02A4B984203D17D
:1020700022F070024B681A43224B984220D0B0F1F4
:10208000804F1DD0204B98421AD0204B984217D039
:102090001F4B984214D01F4B984211D01E4B9842B0
:1020A0000ED01E4B98420BD01D4B984208D01D4BB2
:1020B000984205D01C4B984202D01C4B984203D149
:1020C00022F44072CB681A4322F080034C6943EA41
:1020D000040202608B68C3620B688362094B9842FA
:1020E00002D00C4B984201D10B6903630123436179
:1020F000036903F001031BB1036923F001030361CA
:1021000010BD000000000140000400400008004035
:10211000000C004000040140004001400044014028
:102120000048014000180040001C00400020004012
:1021300030B50C46816821F47F4142EA03252543EE
:102140002943816030BD0A46816821F0700142F068
:10215000070319438160704730B50B461446026A85
:10216000056A25F001050562816921F0F00141EA67
:10217000041122F00A021A438161026230BD30B5B7
:102180000B461446026A056A25F01005056281694E
:1021900021F4704141EA043122F0A00242EA031224
:1021A0008161026230BD00BFFEE7000002480068A6
:1021B000C0F30220704700000CED00E010B50028CD
:1021C00004DB0A07130E054A135406E00A07140E2F
:1021D000034A00F00F031B1FD45410BD00E400E0BD
:1021E00018ED00E000B58BB00120099000200790A9
:1021F0000120089000200190029003900490069026
:10220000059001A90548FEF7D3F90448FEF771FDD2
:1022100002210248FEF712F90BB000BD2400002095
:10222000FEF7AAFEFFF7A4FEFFF72EFEFFF70AFE59
:10223000FFF75CFE0448FFF7A3FBFFF7D3FFFFF7B0
:10224000F9FD00BFFEE700004C0000204FF0407099
:10225000E1EE100A704700000000000000000102DB
:10226000030406070809000000000102030400003F
:10227000902200080000002024000000C401000893
:10228000B42200082400002004070000E001000838
:10229000000000000000000010000000010000002D
:1022A0000024F40000000000000000000000000016
:0422B000000000002A
:040000050800018965
:00000001FF
